:020000040800F2
:1000000000280020B5110008451100084B11000818
:1000100051110008571100085D1100080000000090
:100020000000000000000000000000006311000854
:100030006F110008000000007B1100088711000804
:10004000FD110008FD110008FD110008FD11000858
:10005000FD110008FD110008FD110008FD11000848
:10006000FD110008FD110008FD110008FD11000838
:10007000FD110008FD110008FD110008FD11000828
:10008000FD110008FD110008FD110008FD11000818
:10009000FD110008FD110008FD110008FD11000808
:1000A000FD110008FD110008FD110008FD110008F8
:1000B00095110008FD11000800000000FD11000866
:1000C000FD1100080000000000000000FD11000804
:1000D00000000000FD110008FD11000800000000F4
:1000E000FD110008FD110008FD11000800000000CE
:1000F0000000000000000000000000000000000000
:0C01000000000000000000005FF808F1A3
:10010C0010B5054C237833B9044B13B10448AFF345
:10011C0000800123237010BD50000020000000005F
:10012C004C28000808B5034B1BB103490348AFF337
:10013C00008008BD00000000540000204C2800087E
:10014C0080B500AF094B1B68012B0CD14FF48061BB
:10015C00074801F06AFB4FF40051054801F065FBBC
:10016C00192000F011FF00BF80BD00BF040100206A
:10017C000008014080B500AF094B1B68012B0CD166
:10018C004FF40061074801F050FB4FF480410548E3
:10019C0001F04BFB192000F0F7FE00BF80BD00BF43
:1001AC00040100200008014080B500AF094B1B681A
:1001BC00012B0CD14FF48051074801F036FB4FF462
:1001CC000041054801F031FB192000F0DDFE00BFB5
:1001DC0080BD00BF040100200008014080B582B042
:1001EC0000AF78607B68012B05D101210D4801F02F
:1001FC00EDFA034612E07B68022B05D10221094877
:10020C0001F0E4FA034609E07B68032B05D10421D5
:10021C00044801F0DBFA034600E0012318460837D6
:10022C00BD4680BD000C014080B400AF064B1B687E
:10023C00012B04D1044B00221A60012300E000239F
:10024C001846BD4680BC70478800002080B400AFC3
:10025C00064B1B68012B04D1044B00221A600123AE
:10026C0000E000231846BD4680BC70478C0000207F
:10027C0080B400AF064B1B68012B04D1044B002249
:10028C001A60012300E000231846BD4680BC70476D
:10029C009000002080B400AF034B01221A6000BF15
:1002AC00BD4680BC704700BF8800002080B400AF02
:1002BC00034B01221A6000BFBD4680BC704700BFD3
:1002CC008C00002080B400AF034B01221A6000BFE9
:1002DC00BD4680BC704700BF9000002080B582B046
:1002EC0000AF00237B6089E0494A7B68134419788E
:1002FC00484A7B6813440A461A70474A7B68134481
:10030C001978434A7B6813440A461A707B68013398
:10031C001846FFF763FF034619463F4A7B681344B0
:10032C000A461A703C4A7B6813441A7838497B6831
:10033C000B441B789A425ED1374A7B6813441A7877
:10034C0034497B680B441B789A4254D1334A7B68FE
:10035C0013441A7830497B680B441B789A422BD093
:10036C002D4A7B68134419782C4A7B6813440A463F
:10037C001A70294A7B6813441B78002B3BD17B688D
:10038C00022B0FD07B68022B0FDC7B68002B03D079
:10039C007B68012B03D008E0FFF77CFF06E0FFF73A
:1003AC0085FF03E0FFF78EFF00E000BF1C4A7B686F
:1003BC00642122F813101EE0194A7B6832F81330BE
:1003CC00013B99B2164A7B6822F81310144A7B68D9
:1003DC0032F81330002B0ED1114A7B68642122F8BD
:1003EC001310104A7B68134401221A700B4A7B6865
:1003FC00134401221A707B6801337B607B68022BEB
:10040C007FF772AF00BF00BF0837BD4680BD00BF8D
:10041C007400002078000020700000206C00002088
:10042C00800000207C00002080B582B000AF786096
:10043C007B68002B14BF01230023DBB21A464FF458
:10044C008061154801F0D9F97B68012B14BF012399
:10045C000023DBB21A464FF400610F4801F0CDF9CE
:10046C007B68022B14BF01230023DBB21A464FF426
:10047C008051094801F0C1F97B68032B14BF01239B
:10048C000023DBB21A464FF40051034801F0B5F9D2
:10049C0000BF0837BD4680BD000C014080B582B05E
:1004AC0000AF78607B68002B02DB7B68092B01DDD9
:1004BC0000237B60314A7B6813441B7803F00103F3
:1004CC00DBB21A4601212E4801F097F92B4A7B68C2
:1004DC0013441B785B10DBB203F00103DBB21A464A
:1004EC000221274801F089F9244A7B6813441B78C0
:1004FC009B10DBB203F00103DBB21A460421204847
:10050C0001F07BF91D4A7B6813441B78DB10DBB2CE
:10051C0003F00103DBB21A460821194801F06DF90A
:10052C00164A7B6813441B781B11DBB203F00103E2
:10053C00DBB21A461021124801F05FF90F4A7B68B2
:10054C0013441B785B11DBB203F00103DBB21A46D8
:10055C0020210B4801F051F9084A7B6813441B78A1
:10056C009B11DBB203F00103DBB21A4640210448B5
:10057C0001F043F900BF0837BD4680BD10000020D4
:10058C000008014080B483B000AF786039607B68AC
:10059C00184A82FB03129210DB17D31A164A136007
:1005AC007968144B83FB01239A10CB17D21A13468C
:1005BC009B0013445B00CA1A0F4B5A603B680D4AF0
:1005CC0082FB03129210DB17D31A0B4A9360396823
:1005DC00084B83FB01239A10CB17D21A13469B00AE
:1005EC0013445B00CA1A044BDA6000BF0C37BD46DB
:1005FC0080BC7047676666660000002080B500AF5F
:10060C00264B1B68B3F1FF3F26D1254B1B68254AAF
:10061C00126811461846FFF7B5FF01224FF48061AE
:10062C00214801F0EAF801224FF400611E4801F064
:10063C00E4F801224FF480511B4801F0DEF801224E
:10064C004FF40051184801F0D8F8144B00221A60EE
:10065C00052000F0ADFC1FE0144B1B68012B07D1EB
:10066C000E4B1B6801330D4A1360052000F0A0FCF3
:10067C000A4B1B68032B02DD084B00221A60074B48
:10068C001B681846FFF7D0FE044B1B68084A52F84B
:10069C0023301846FFF702FF00BF80BD1C0000206E
:1006AC002C00002034000020000C01400C01002024
:1006BC000000002080B500AF0F4B1B68012B19D137
:1006CC00642000F039FC0D4B1B68013B0B4A136096
:1006DC000B4B1B68013B0A4A1360084B1B68084A0A
:1006EC00126811461846FFF74DFF4FF400410548BC
:1006FC0001F09BF800BF80BDEC0000203C00002006
:10070C0040000020000C014080B500AFAA4B1B68D4
:10071C00013B082B00F2468201A252F823F000BFE5
:10072C005107000895070008F30700086508000842
:10073C00C308000835090008F10900087F0A000801
:10074C004B0B000800F0BCFA9B4B02221A60642091
:10075C0000F0F2FB994B1B68184600F001FC984B1B
:10076C001B68984A82FB03125211DB17D31A964A64
:10077C001360924B1B68934A82FB03125211DB17D6
:10078C00D31A924A13601EE20A2000F03DFA0C20A4
:10079C0000F068FA8E4B1B68012B11D18D4B1B6836
:1007AC00184600F0DDFB8B4B1B68864A82FB03125C
:1007BC005211DB17D31A854A13607F4B03221A6040
:1007CC00FFF732FD0346012B40F0EE8100F078FA82
:1007DC00192000F0D9FB784B06221A60784B1B6865
:1007EC007D4A1360E0E10A2000F00EFA0B2000F0C5
:1007FC0039FA774B1B68012B1BD1704B1B681846C1
:10080C0000F0AEFB6D4B1B686E4A82FB031252115B
:10081C00DB17D31A6C4A1360694B1B68694A82FB5D
:10082C0003125211DB17D31A684A1360624B04226D
:10083C001A60FFF7F9FC0346012B40F0B78100F07A
:10084C003FFA192000F0A0FB5B4B06221A605C4BB0
:10085C001B68614A1360A9E10C2000F0D5F90A204D
:10086C0000F000FA5A4B1B68012B11D1594B1B6835
:10087C00184600F075FB574B1B68524A82FB03125B
:10088C005211DB17D31A504A13604B4B05221A60D6
:10089C00FFF7CAFC0346012B40F08A8100F010FAE6
:1008AC00192000F071FB444B06221A60444B1B6864
:1008BC00494A13607CE10B2000F0A6F90A2000F0F5
:1008CC00D1F9434B1B68012B1BD13C4B1B681846C1
:1008DC0000F046FB3A4B1B683A4A82FB031252115A
:1008EC00DB17D31A384A1360344B1B68354A82FB2A
:1008FC0003125211DB17D31A344A13602E4B022207
:10090C001A60FFF791FC0346012B40F0538100F075
:10091C00D7F9192000F038FB274B06221A60284B18
:10092C001B682D4A136045E1FFF70AFC244B1B683A
:10093C00244A82FB03125211DB17D31A19460220E8
:10094C00FFF720FEFFF770FC0346012B16D1234B5B
:10095C001B68002B03D1204B1B68194A13601F4BDB
:10096C0000221A6000F0ACF9192000F00DFB124BBC
:10097C0007221A60174B1B68194A1360FFF766FCB5
:10098C000346012B0DD10E4B1B6864330C4A1360CC
:10099C000B4B1B6842F20F72934202DD084B642230
:1009AC001A60FFF765FC0346012B40F005810B4BE9
:1009BC0001221A6000E100BF380000203400002042
:1009CC002C0000201F85EB513C0000204000002033
:1009DC00F4000020300000202000002094000020B3
:1009EC0024000020FFF7C6FB7A4B1B687A4A82FB77
:1009FC0003125211DB17D31A19460320FFF7C2FD5D
:100A0C00FFF712FC0346012B16D1744B1B68002B0D
:100A1C0003D1734B1B686F4A1360704B00221A6032
:100A2C0000F04EF9192000F0AFFA6E4B08221A6054
:100A3C006D4B1B686D4A1360FFF708FC0346012BD6
:100A4C000DD1644B1B686433624A1360614B1B68A5
:100A5C0042F20F72934202DD5E4B64221A60FFF782
:100A6C0007FC0346012B40F0A9805C4B01221A6065
:100A7C00A4E0FFF799FB5C4B1B68574A82FB0312FF
:100A8C005211DB17D31A19460420FFF77BFDFFF731
:100A9C00CBFB0346012B36D1554B1B68002B03D1E6
:100AAC00524B1B68504A1360514B00221A604E4B3C
:100ABC001A68484B1B681A444E4B1B689A4206D066
:100ACC00484B09221A60C82000F04AFA1BE0454B3B
:100ADC0002221A60444B1B68184600F041FA454B41
:100AEC001B683D4A82FB03125211DB17D31A424A90
:100AFC0013603D4B1B68384A82FB03125211DB1703
:100B0C00D31A3E4A1360FFF7A1FB0346012B0DD10C
:100B1C00354B1B686433344A1360334B1B6842F209
:100B2C000F72934202DD304B64221A60FFF7A0FB78
:100B3C000346012B44D12E4B01221A6040E00021C8
:100B4C000020FFF71FFD00F0BBF82D4B1B68294A56
:100B5C001360234B1B681F4A1360244B1B68224AEB
:100B6C001360284B1B68012B2CD11E4B02221A60E0
:100B7C001D4B1B68184600F0F3F91E4B1B68164AF8
:100B8C0082FB03125211DB17D31A1B4A1360164B4C
:100B9C001B68114A82FB03125211DB17D31A174A36
:100BAC0013600FE000BF0EE000BF0CE000BF0AE0D6
:100BBC0000BF08E000BF06E000BF04E000BF02E099
:100BCC0000BF00E000BFFFF719FDFFF773FD00BF8A
:100BDC0080BD00BF300000201F85EB519800002025
:100BEC0024000020380000203400002028000020C1
:100BFC009C0000202C0000203C0000204000002025
:100C0C0020000020F400002080B582B000AF786096
:100C1C007B680A2B14BF01230023DBB21A464FF466
:100C2C0080610F4800F0E9FD7B680B2B14BF01239A
:100C3C000023DBB21A464FF40061094800F0DDFDD9
:100C4C007B680C2B14BF01230023DBB21A464FF434
:100C5C008051034800F0D1FD00BF0837BD4680BD70
:100C6C000008014080B582B000AF78607B680A2B29
:100C7C0014BF01230023DBB21A464FF400510F4876
:100C8C0000F0BBFD7B680B2B14BF01230023DBB2F0
:100C9C001A464FF48041094800F0AFFD7B680C2BDD
:100CAC0014BF01230023DBB21A464FF40041034862
:100CBC0000F0A3FD00BF0837BD4680BD0008014011
:100CCC0080B500AF01224FF48061114800F095FD12
:100CDC0001224FF400510E4800F08FFD01224FF419
:100CEC0000610B4800F089FD01224FF48041084857
:100CFC0000F083FD01224FF48051054800F07DFD8A
:100D0C0001224FF40041024800F077FD00BF80BD86
:100D1C000008014080B500AF00F06CFA00F010F84C
:100D2C0000F096F800F048F8044801F0C5F964208A
:100D3C0000F002F9FFF7E8FCFCE700BFA000002080
:100D4C0080B590B000AF07F1180328220021184697
:100D5C0001F04AFD3B1D00221A605A609A60DA606D
:100D6C001A610223BB610123BB621023FB620023C7
:100D7C007B6307F11803184600F070FD0346002B47
:100D8C0001D000F0D3F80F237B600023BB6000235D
:100D9C00FB6000233B6100237B613B1D0021184657
:100DAC0000F0DEFF0346002B01D000F0BFF800BFBF
:100DBC004037BD4680BD000080B586B000AF07F15E
:100DCC00080300221A605A609A60DA603B460022DF
:100DDC001A605A601D4B4FF080421A601B4B41F653
:100DEC003F725A60194B00229A60184B0922DA6044
:100DFC00164B00221A61154B00229A61134801F020
:100E0C000BF90346002B01D000F090F84FF48053FF
:100E1C00BB6007F1080319460C4801F0A1FA034620
:100E2C00002B01D000F082F800233B6000237B6094
:100E3C003B461946054801F06DFC0346002B01D0DA
:100E4C0000F074F800BF1837BD4680BDA00000202C
:100E5C0080B586B000AF07F1080300221A605A6013
:100E6C009A60DA60284B9B69274A43F0040393612C
:100E7C00254B9B6903F004037B607B68224B9B69C9
:100E8C00214A43F0080393611F4B9B6903F008034D
:100E9C003B603B6800224FF67F411C4800F0ADFCE4
:100EAC0000224FF43C411A4800F0A7FC4FF67F4358
:100EBC00BB600123FB6000233B6102237B6107F1D4
:100ECC0008031946114800F005FB0F23BB600023F3
:100EDC00FB6001233B6107F1080319460C4800F045
:100EEC00F9FA4FF43C43BB600123FB6000233B61E8
:100EFC0002237B6107F108031946054800F0EAFA62
:100F0C0000BF1837BD4680BD0010024000080140EC
:100F1C00000C014080B582B000AF786000F05CF846
:100F2C00FFF7DCF900BF0837BD4680BD80B400AFC9
:100F3C0072B600BFFEE7000080B483B000AF7860EB
:100F4C00054A7B681360054B00221A6000BF0C3702
:100F5C00BD4680BC704700BFE8000020EC000020BC
:100F6C0080B483B000AF7860054A7B681360054B92
:100F7C0000221A6000BF0C37BD4680BC704700BF12
:100F8C00F0000020F400002080B483B000AF786043
:100F9C00054A7B681360054B00221A6000BF0C37B2
:100FAC00BD4680BC704700BF00010020040100203A
:100FBC0080B483B000AF7860054A7B681360054B42
:100FCC0000221A6000BF0C37BD4680BC704700BFC2
:100FDC00080100200C01002080B400AF294B1B68D5
:100FEC00002B0BDD274B1B68013B264A1360254B5E
:100FFC001B68002B02DC244B01221A60234B1B685C
:10100C00002B0BDD214B1B68013B204A13601F4B4F
:10101C001B68002B02DC1E4B01221A601D4B1B6847
:10102C00002B0BDD1B4B1B68013B1A4A1360194B41
:10103C001B68002B02DC184B01221A60174B1B6833
:10104C00002B0BDD154B1B68013B144A1360134B33
:10105C001B68002B02DC124B01221A60114B1B681F
:10106C00002B0BDD0F4B1B68013B0E4A13600D4B25
:10107C001B68002B02DC0C4B01221A6000BFBD4622
:10108C0080BC7047E8000020EC000020F00000203D
:10109C00F4000020F8000020FC00002000010020DB
:1010AC0004010020080100200C01002080B483B052
:1010BC0000AF0E4B9B690D4A43F0010393610B4B40
:1010CC009B6903F001037B607B68084BDB69074A73
:1010DC0043F08053D361054BDB6903F080533B60D5
:1010EC003B6800BF0C37BD4680BC70470010024007
:1010FC0080B584B000AF78607B681B68B3F1804F1B
:10110C0013D10C4BDB690B4A43F00103D361094B40
:10111C00DB6903F00103FB60FB68002200211C204B
:10112C0000F0A1F91C2000F0BAF900BF1037BD4641
:10113C0080BD00BF0010024080B400AFFEE780B459
:10114C0000AFFEE780B400AFFEE780B400AFFEE76F
:10115C0080B400AFFEE780B400AF00BFBD4680BCDA
:10116C00704780B400AF00BFBD4680BC704780B4F0
:10117C0000AF00BFBD4680BC704780B500AF00F02B
:10118C007FF800BF80BD000080B500AF024800F0C2
:10119C00DFFF00BF80BD00BFA000002080B400AF07
:1011AC0000BFBD4680BC7047FFF7F8FF0B480C49E9
:1011BC000C4A002302E0D458C4500433C4188C42A7
:1011CC00F9D3094A094C002301E013600432A2420E
:1011DC00FBD301F011FBFFF79DFD704700000020D1
:1011EC00500000209028000850000020140100201E
:1011FC00FEE7000080B500AF084B1B68074A43F0C0
:10120C0010031360032000F023F90F2000F008F8FE
:10121C00FFF74CFF0023184680BD00BF00200240A2
:10122C0080B582B000AF7860124B1A68124B1B78F5
:10123C0019464FF47A73B3FBF1F3B2FBF3F3184690
:10124C0000F03BF90346002B01D001230EE07B6834
:10125C000F2B0AD8002279684FF0FF3000F003F909
:10126C00064A7B681360002300E001231846083708
:10127C00BD4680BD440000204C00002048000020EA
:10128C0080B400AF054B1B781A46054B1B68134402
:10129C00034A136000BFBD4680BC70474C00002061
:1012AC001001002080B400AF024B1B681846BD46ED
:1012BC0080BC70471001002080B485B000AF78600E
:1012CC007B6803F00703FB600C4BDB68BB60BA6800
:1012DC004FF6FF031340BB60FB681A02BB68134355
:1012EC0043F0BF6343F40033BB60044ABB68D36074
:1012FC0000BF1437BD4680BC704700BF00ED00E056
:10130C0080B400AF044BDB681B0A03F007031846DC
:10131C00BD4680BC704700BF00ED00E080B483B0D8
:10132C0000AF0346FB7197F90730002B0BDBFB7901
:10133C0003F01F02064997F907305B09012000FAF8
:10134C0002F241F8232000BF0C37BD4680BC704729
:10135C0000E100E080B483B000AF03463960FB715C
:10136C0097F90730002B0ADB3B68DAB20C4997F986
:10137C0007301201D2B20B4483F800230AE03B6819
:10138C00DAB20849FB7903F00F03043B1201D2B225
:10139C000B441A7600BF0C37BD4680BC704700BFAB
:1013AC0000E100E000ED00E080B489B000AFF8602F
:1013BC00B9607A60FB6803F00703FB61FB69C3F15A
:1013CC000703042B28BF0423BB61FB690433062BE2
:1013DC0002D9FB69033B00E000237B614FF0FF3235
:1013EC00BB6902FA03F3DA43BB681A407B699A4083
:1013FC004FF0FF317B6901FA03F3D9437B680B4053
:10140C00134318462437BD4680BC704780B582B064
:10141C0000AF78607B68013BB3F1807F01D301237F
:10142C000FE00A4A7B68013B53600F214FF0FF30FD
:10143C00FFF790FF054B00229A60044B07221A60BD
:10144C00002318460837BD4680BD00BF10E000E001
:10145C0080B582B000AF78607868FFF72DFF00BFD1
:10146C000837BD4680BD80B586B000AF0346B96075
:10147C007A60FB7300237B61FFF742FF78617A6827
:10148C00B9687869FFF790FF024697F90F3011465B
:10149C001846FFF75FFF00BF1837BD4680BD80B50B
:1014AC0082B000AF0346FB7197F907301846FFF77F
:1014BC0035FF00BF0837BD4680BD80B582B000AF98
:1014CC0078607868FFF7A2FF034618460837BD46D8
:1014DC0080BD000080B48BB000AF78603960002311
:1014EC007B6200233B6261E101227B6A02FA03F317
:1014FC00FB613B681B68FA691340BB61BA69FB6905
:10150C009A4240F050813B685B68974A93425ED0A8
:10151C00954A934275D8954A934258D0934A934230
:10152C006FD8934A934252D0914A934269D8914AC8
:10153C0093424CD08F4A934263D88F4A934246D001
:10154C008D4A93425DD8122B2AD8122B59D801A25E
:10155C0052F823F0DB150008B5150008C715000874
:10156C00091600080F1600080F1600080F160008C1
:10157C000F1600080F1600080F1600080F160008AB
:10158C000F1600080F1600080F1600080F1600089B
:10159C000F1600080F160008BD150008D11500081D
:1015AC00764A934213D02CE03B68DB683B6229E01F
:1015BC003B68DB6804333B6224E03B68DB68083340
:1015CC003B621FE03B68DB680C333B621AE03B6814
:1015DC009B68002B02D104233B6213E03B689B68A1
:1015EC00012B05D108233B627B68FA691A6109E07B
:1015FC0008233B627B68FA695A6103E000233B6273
:10160C0000E000BFBB69FF2B01D87B6801E07B6861
:10161C0004337B61BB69FF2B02D87B6A9B0002E021
:10162C007B6A083B9B003B617B691A680F213B6915
:10163C0001FA03F3DB431A40396A3B6901FA03F3FD
:10164C001A437B691A603B685B6803F08053002B7C
:10165C0000F0A9804A4B9B69494A43F0010393610E
:10166C00474B9B6903F00103BB60BB68454A7B6A2F
:10167C009B08023352F82330FB607B6A03F00303B0
:10168C009B000F2202FA03F3DB43FA681340FB6062
:10169C007B683D4A93420DD07B683C4A934207D00D
:1016AC007B683B4A934201D1022304E0032302E00E
:1016BC00012300E000237A6A02F0030292009340B7
:1016CC00FA681343FB602F497B6A9B080233FA6864
:1016DC0041F823203B685B6803F48013002B06D091
:1016EC002C4B9A682B49BB6913438B6006E0294B42
:1016FC009A68BB69DB43274913408B603B685B6886
:10170C0003F40013002B06D0224BDA682149BB6985
:10171C001343CB6006E01F4BDA68BB69DB431D4902
:10172C001340CB603B685B6803F40033002B06D09E
:10173C00184B5A681749BB6913434B6006E0154BAD
:10174C005A68BB69DB43134913404B603B685B68C9
:10175C0003F48033002B1FD00E4B1A680D49BB6964
:10176C0013430B601FE000BF00003210000031106B
:10177C0000002210000021100000121000001110B7
:10178C00001002400000014000080140000C014024
:10179C0000100140000401400B4B1A68BB69DB438D
:1017AC00094913400B607B6A01337B623B681A6802
:1017BC007B6A22FA03F3002B7FF496AE00BF00BFC6
:1017CC002C37BD4680BC70470004014080B485B006
:1017DC0000AF78600B467B807B689A687B881340EF
:1017EC00002B02D00123FB7301E00023FB73FB7B76
:1017FC0018461437BD4680BC704780B483B000AF28
:10180C0078600B467B8013467B707B78002B03D073
:10181C007A887B681A6103E07B881A047B681A61FA
:10182C0000BF0C37BD4680BC704780B485B000AF9C
:10183C0078600B467B807B68DB68FB607A88FB6892
:10184C0013401A04FB68D9437B880B401A437B680E
:10185C001A6100BF1437BD4680BC704780B586B096
:10186C0000AF78607B68002B01D1012372E27B68AA
:10187C001B6803F00103002B00F08780924B5B6820
:10188C0003F00C03042B0CD08F4B5B6803F00C03A0
:10189C00082B12D18C4B5B6803F48033B3F5803F7B
:1018AC000BD1894B1B6803F40033002B6CD07B6885
:1018BC005B68002B68D101234CE27B685B68B3F555
:1018CC00803F06D1804B1B687F4A43F48033136002
:1018DC002EE07B685B68002B0CD17B4B1B687A4A33
:1018EC0023F480331360784B1B68774A23F48023EE
:1018FC0013601DE07B685B68B3F5A02F0CD1724BB5
:10190C001B68714A43F4802313606F4B1B686E4A4B
:10191C0043F4803313600BE06B4B1B686A4A23F46F
:10192C0080331360684B1B68674A23F48023136071
:10193C007B685B68002B13D0FFF7B4FC386108E0C0
:10194C00FFF7B0FC02463B69D31A642B01D9032381
:10195C0000E25D4B1B6803F40033002BF0D014E065
:10196C00FFF7A0FC386108E0FFF79CFC02463B69DE
:10197C00D31A642B01D90323ECE1534B1B6803F4FA
:10198C000033002BF0D100E000BF7B681B6803F034
:10199C000203002B63D04C4B5B6803F00C03002B51
:1019AC000BD0494B5B6803F00C03082B1CD1464B46
:1019BC005B6803F48033002B16D1434B1B6803F098
:1019CC000203002B05D07B681B69012B01D001237E
:1019DC00C0E13D4B1B6823F0F8027B685B69DB00C0
:1019EC00394913430B603AE07B681B69002B20D00C
:1019FC00364B01221A60FFF755FC386108E0FFF7FF
:101A0C0051FC02463B69D31A022B01D90323A1E1F5
:101A1C002D4B1B6803F00203002BF0D02A4B1B68E4
:101A2C0023F0F8027B685B69DB00274913430B60EA
:101A3C0015E0264B00221A60FFF734FC386108E0F1
:101A4C00FFF730FC02463B69D31A022B01D9032362
:101A5C0080E11D4B1B6803F00203002BF0D17B6867
:101A6C001B6803F00803002B3AD07B689B69002BA2
:101A7C0019D0174B01221A60FFF714FC386108E0EB
:101A8C00FFF710FC02463B69D31A022B01D9032342
:101A9C0060E10D4B5B6A03F00203002BF0D00120D8
:101AAC0000F09CFA1CE00A4B00221A60FFF7FAFBCC
:101ABC0038610FE0FFF7F6FB02463B69D31A022BA5
:101ACC0008D9032346E100BF001002400000424247
:101ADC0080044242924B5B6A03F00203002BE9D173
:101AEC007B681B6803F00403002B00F0A680002326
:101AFC00FB758B4BDB6903F08053002B0DD1884BAE
:101B0C00DB69874A43F08053D361854BDB6903F073
:101B1C008053BB60BB680123FB75824B1B6803F4CD
:101B2C008073002B18D17F4B1B687E4A43F4807363
:101B3C001360FFF7B7FB386108E0FFF7B3FB024611
:101B4C003B69D31A642B01D9032303E1754B1B6842
:101B5C0003F48073002BF0D07B68DB68012B06D17B
:101B6C006F4B1B6A6E4A43F0010313622DE07B68D6
:101B7C00DB68002B0CD16A4B1B6A694A23F001030A
:101B8C001362674B1B6A664A23F0040313621CE062
:101B9C007B68DB68052B0CD1614B1B6A604A43F0F8
:101BAC00040313625E4B1B6A5D4A43F0010313622C
:101BBC000BE05B4B1B6A5A4A23F001031362584B30
:101BCC001B6A574A23F0040313627B68DB68002B03
:101BDC0015D0FFF767FB38610AE0FFF763FB02469D
:101BEC003B69D31A41F28832934201D90323B1E005
:101BFC004B4B1B6A03F00203002BEED014E0FFF7F3
:101C0C0051FB38610AE0FFF74DFB02463B69D31AE2
:101C1C0041F28832934201D903239BE0404B1B6A6B
:101C2C0003F00203002BEED1FB7D012B05D13C4BC5
:101C3C00DB693B4A23F08053D3617B68DB69002B63
:101C4C0000F08780364B5B6803F00C03082B61D0E7
:101C5C007B68DB69022B46D1334B00221A60FFF7FD
:101C6C0021FB386108E0FFF71DFB02463B69D31AE4
:101C7C00022B01D903236DE0294B1B6803F0007381
:101C8C00002BF0D17B681B6AB3F5803F08D1244B45
:101C9C005B6823F400327B689B68214913434B60DB
:101CAC001F4B5B6823F474127B68196A7B685B6A50
:101CBC000B431B4913434B601B4B01221A60FFF76C
:101CCC00F1FA386108E0FFF7EDFA02463B69D31AE6
:101CDC00022B01D903233DE0114B1B6803F0007369
:101CEC00002BF0D035E0104B00221A60FFF7DAFA27
:101CFC00386108E0FFF7D6FA02463B69D31A022B8B
:101D0C0001D9032326E0064B1B6803F00073002B5C
:101D1C00F0D11EE07B68DB69012B07D1012319E0B0
:101D2C000010024000700040600042420B4B5B68A8
:101D3C00FB60FB6803F480327B681B6A9A4206D115
:101D4C00FB6803F470127B685B6A9A4201D0012332
:101D5C0000E0002318461837BD4680BD0010024035
:101D6C0080B584B000AF786039607B68002B01D1FE
:101D7C000123D0E06A4B1B6803F007033A689A42D0
:101D8C0010D9674B1B6823F0070265493B68134366
:101D9C000B60634B1B6803F007033A689A4201D04F
:101DAC000123B8E07B681B6803F00203002B20D0F2
:101DBC007B681B6803F00403002B05D0594B5B6850
:101DCC00584A43F4E06353607B681B6803F00803D4
:101DDC00002B05D0534B5B68524A43F4605353605D
:101DEC00504B5B6823F0F0027B689B684D491343B2
:101DFC004B607B681B6803F00103002B40D07B68B1
:101E0C005B68012B07D1474B1B6803F40033002B95
:101E1C0015D101237FE07B685B68022B07D1414B16
:101E2C001B6803F00073002B09D1012373E03D4BB9
:101E3C001B6803F00203002B01D101236BE0394B2B
:101E4C005B6823F003027B685B68364913434B6085
:101E5C00FFF728FAF8600AE0FFF724FA0246FB685D
:101E6C00D31A41F28832934201D9032353E02D4B0C
:101E7C005B6803F00C027B685B689B009A42EBD1B9
:101E8C00274B1B6803F007033A689A4210D2244B85
:101E9C001B6823F0070222493B6813430B60204B5D
:101EAC001B6803F007033A689A4201D0012332E021
:101EBC007B681B6803F00403002B08D0194B5B688C
:101ECC0023F4E0627B68DB68164913434B607B6844
:101EDC001B6803F00803002B09D0124B5B6823F43A
:101EEC0060527B681B69DB000E4913434B6000F0AA
:101EFC0021F802460B4B5B681B0903F00F030A49E0
:101F0C00CB5C22FA03F3094A1360094B1B68184691
:101F1C00FFF786F9002318461037BD4680BD00BF79
:101F2C0000200240001002406428000844000020F9
:101F3C004800002080B487B000AF0023FB60002372
:101F4C00BB6000237B6100237B6000233B611E4B45
:101F5C005B68FB60FB6803F00C03042B02D0082BBE
:101F6C0003D027E0194B3B6127E0FB689B0C03F087
:101F7C000F03174AD35C7B60FB6803F48033002BA0
:101F8C0010D0114B5B685B0C03F00103114AD35C5E
:101F9C00BB607B680D4A03FB02F2BB68B2FBF3F338
:101FAC007B6104E07B680C4A02FB03F37B617B6979
:101FBC003B6102E0054B3B6100BF3B6918461C3797
:101FCC00BD4680BC704700BF0010024000127A0072
:101FDC00742800088428000800093D0080B485B0EE
:101FEC0000AF78600A4B1B680A4AA2FB03235B0A0A
:101FFC007A6802FB03F3FB6000BFFB685A1EFA60B1
:10200C00002BF9D100BF00BF1437BD4680BC704710
:10201C0044000020D34D621080B582B000AF7860D0
:10202C007B68002B01D1012341E07B6893F83D30A4
:10203C00DBB2002B06D17B68002283F83C20786849
:10204C00FFF756F87B68022283F83D207B681A68FC
:10205C007B6804331946104600F06EFA7B68012247
:10206C0083F846207B68012283F83E207B6801229E
:10207C0083F83F207B68012283F840207B68012293
:10208C0083F841207B68012283F842207B6801227F
:10209C0083F843207B68012283F844207B6801226B
:1020AC0083F845207B68012283F83D2000231846E5
:1020BC000837BD4680BD000080B485B000AF7860A5
:1020CC007B6893F83D30DBB2012B01D0012335E066
:1020DC007B68022283F83D207B681B68DA687B688A
:1020EC001B6842F00102DA607B681B68164A934257
:1020FC0009D07B681B68B3F1804F04D07B681B68E8
:10210C00124A934211D17B681B689B6803F007034A
:10211C00FB60FB68062B10D07B681B681A687B6819
:10212C001B6842F001021A6007E07B681B681A68A2
:10213C007B681B6842F001021A60002318461437B2
:10214C00BD4680BC704700BF002C0140000400401D
:10215C0080B582B000AF78607B681B681B6903F0A8
:10216C000203022B22D17B681B68DB6803F002039D
:10217C00022B1BD17B681B686FF002021A617B6813
:10218C0001221A777B681B689B6903F00303002B01
:10219C0003D0786800F0B4F905E0786800F0A7F98E
:1021AC00786800F0B6F97B6800221A777B681B68A8
:1021BC001B6903F00403042B22D17B681B68DB68CA
:1021CC0003F00403042B1BD17B681B686FF0040223
:1021DC001A617B6802221A777B681B689B6903F47F
:1021EC004073002B03D0786800F08AF905E078681A
:1021FC0000F07DF9786800F08CF97B6800221A7782
:10220C007B681B681B6903F00803082B22D17B68D1
:10221C001B68DB6803F00803082B1BD17B681B6869
:10222C006FF008021A617B6804221A777B681B68BE
:10223C00DB6903F00303002B03D0786800F060F92E
:10224C0005E0786800F053F9786800F062F97B6873
:10225C0000221A777B681B681B6903F01003102B94
:10226C0022D17B681B68DB6803F01003102B1BD199
:10227C007B681B686FF010021A617B6808221A7762
:10228C007B681B68DB6903F44073002B03D0786810
:10229C0000F036F905E0786800F029F9786800F06C
:1022AC0038F97B6800221A777B681B681B6903F07E
:1022BC000103012B0ED17B681B68DB6803F0010363
:1022CC00012B07D17B681B686FF001021A617868DB
:1022DC00FEF720FE7B681B681B6903F08003802BD4
:1022EC000ED17B681B68DB6803F08003802B07D161
:1022FC007B681B686FF080021A61786800F06BFADB
:10230C007B681B681B6903F04003402B0ED17B6874
:10231C001B68DB6803F04003402B07D17B681B680C
:10232C006FF040021A61786800F0FCF87B681B685B
:10233C001B6903F02003202B0ED17B681B68DB6824
:10234C0003F02003202B07D17B681B686FF0200261
:10235C001A61786800F036FA00BF0837BD4680BDB8
:10236C0080B584B000AF786039600023FB737B6864
:10237C0093F83C30012B01D10223B4E07B6801229D
:10238C0083F83C207B68022283F83D207B681B6825
:10239C009B68BB60BB6823F07703BB60BB6823F40E
:1023AC007F43BB607B681B68BA689A603B681B689C
:1023BC00B3F5005F3ED0B3F5005F00F28780B3F554
:1023CC00805F00F08680B3F5805F7FD8702B1AD0C9
:1023DC00702B7BD8602B50D0602B77D8502B3CD0F7
:1023EC00502B73D8402B58D0402B6FD8302B64D047
:1023FC00302B6BD8202B60D0202B67D8002B5CD0D7
:10240C00102B5AD062E07B6818683B6899683B686F
:10241C005A683B68DB6800F05EF97B681B689B6858
:10242C00BB60BB6843F07703BB607B681B68BA6812
:10243C009A604FE07B6818683B6899683B685A68FB
:10244C003B68DB6800F047F97B681B689A687B681F
:10245C001B6842F480429A603CE07B6818683B68D9
:10246C0059683B68DB681A4600F0BEF87B681B684D
:10247C005021184600F015F92CE07B6818683B6871
:10248C0059683B68DB681A4600F0DCF87B681B680F
:10249C006021184600F005F91CE07B6818683B6861
:1024AC0059683B68DB681A4600F09EF87B681B682D
:1024BC004021184600F0F5F80CE07B681A683B6880
:1024CC001B681946104600F0ECF803E00123FB737F
:1024DC0000E000BF7B68012283F83D207B6800226E
:1024EC0083F83C20FB7B18461037BD4680BD80B47A
:1024FC0083B000AF786000BF0C37BD4680BC70471E
:10250C0080B483B000AF786000BF0C37BD4680BC90
:10251C00704780B483B000AF786000BF0C37BD4605
:10252C0080BC704780B483B000AF786000BF0C37BC
:10253C00BD4680BC7047000080B485B000AF7860A9
:10254C0039607B681B68FB607B68254A934207D027
:10255C007B68B3F1804F03D07B68224A934208D149
:10256C00FB6823F07003FB603B685B68FA681343FD
:10257C00FB607B681A4A934207D07B68B3F1804FAB
:10258C0003D07B68174A934208D1FB6823F440734D
:10259C00FB603B68DB68FA681343FB60FB6823F065
:1025AC0080023B685B691343FB607B68FA681A60C6
:1025BC003B689A687B68DA623B681A687B689A6247
:1025CC007B68074A934203D13B681A697B681A639C
:1025DC007B6801225A6100BF1437BD4680BC70472E
:1025EC00002C01400004004080B487B000AFF860BC
:1025FC00B9607A60FB681B6A7B61FB681B6A23F01D
:10260C000102FB681A62FB689B693B613B6923F022
:10261C00F0033B617B681B013A6913433B617B69A7
:10262C0023F00A037B617A69BB6813437B61FB6807
:10263C003A699A61FB687A691A6200BF1C37BD4619
:10264C0080BC704780B487B000AFF860B9607A6026
:10265C00FB681B6A7B61FB681B6A23F01002FB683A
:10266C001A62FB689B693B613B6923F470433B61D5
:10267C007B681B033A6913433B617B6923F0A0031E
:10268C007B61BB681B017A6913437B61FB683A6908
:10269C009A61FB687A691A6200BF1C37BD4680BC20
:1026AC00704780B485B000AF786039607B689B68F8
:1026BC00FB60FB6823F07003FB603A68FB68134314
:1026CC0043F00703FB607B68FA689A6000BF14371D
:1026DC00BD4680BC704780B487B000AFF860B9606D
:1026EC007A603B60FB689B687B617B6923F47F436A
:1026FC007B613B681A027B681A43BB6813437A6997
:10270C0013437B61FB687A699A6000BF1C37BD4636
:10271C0080BC704780B485B000AF786039607B684E
:10272C0093F83C30012B01D1022341E07B6801225C
:10273C0083F83C207B68022283F83D207B681B6871
:10274C005B68FB607B681B689B68BB60FB6823F065
:10275C007003FB603B681B68FA681343FB607B6883
:10276C001B68FA685A607B681B68144A934209D04C
:10277C007B681B68B3F1804F04D07B681B68104AE0
:10278C0093420CD1BB6823F08003BB603B685B6851
:10279C00BA681343BB607B681B68BA689A607B6835
:1027AC00012283F83D207B68002283F83C20002323
:1027BC0018461437BD4680BC704700BF002C014042
:1027CC000004004080B483B000AF786000BF0C37C9
:1027DC00BD4680BC704780B483B000AF786000BF4A
:1027EC000C37BD4680BC704703460244934200D16F
:1027FC00704703F8011BF9E770B500260C4D0D4C22
:10280C00641BA410A64209D100F01AF800260A4D48
:10281C000A4C641BA410A64205D170BD55F8043BAC
:10282C0098470136EEE755F8043B98470136F2E736
:10283C008828000888280008882800088C280008A8
:10284C00F8B500BFF8BC08BC9E467047F8B500BF91
:08285C00F8BC08BC9E46704761
:10286400000000000000000001020304060708093C
:1028740002030405060708090A0B0C0D0E0F1010BD
:04288400010200004D
:042888003101000812
:04288C000D01000832
:102890000000000005000000000000000300000030
:1028A000C0F9A4B0999282F880908000FFFFFFFFEA
:1028B000F4010000C80000002C010000F401000039
:1028C000C80000002C01000001000000050000000D
:1028D000030000000024F4001000000001000000CC
:04000005080011B529
:00000001FF
